:103000005FC0000096C0000094C0000092C00000A5
:1030100090C000008EC000008CC000008AC000007C
:1030200088C0000086C0000046C2000082C00000C8
:1030300080C000007EC000007CC000007AC000009C
:1030400078C0000076C0000074C0000072C00000AC
:1030500070C000006EC000006CC000006AC00000BC
:1030600068C0000066C0000064C0000062C00000CC
:1030700060C000005EC000005CC000005AC00000DC
:1030800058C0000056C0000054C0000052C00000EC
:1030900050C000004EC000004CC000004AC00000FC
:1030A00048C0000046C0000044C000002E1B4B1B5F
:1030B000EE1B4B1BEE1B801BA11BEE1BC11BD31B6E
:1030C00011241FBECFEFD5E0DEBFCDBF04B600FE9A
:1030D0000AC084B78E7F84BF1092590110925801A4
:1030E000E0E0F0E0099504B603FE0EC080915801BF
:1030F0009091590182349C4D39F4109259011092EB
:103100005801E0E0F0E0099511E0A0E0B1E0ECE466
:10311000F8E302C005900D92AC34B107D9F721E075
:10312000ACE4B1E001C01D92A835B207E1F726D0AA
:103130008BC366CF80914D018F5F80934D018111CC
:1031400008C080914C0190910001890F80934C013F
:10315000769A90914D0180914C01981301C0769818
:1031600080914C018F3F39F0811107C0809100019F
:10317000813019F081E080930001089584B7877F42
:1031800084BF88E10FB6F8948093600010926000CD
:103190000FBE81E085BF82E085BF6E9A769A6ED1C0
:1031A000789480910101882319F02DD3C3DFF9CFE2
:1031B0008091E00081608093E00082E49CED909338
:1031C0005901809358012CE088E190E00FB6F89403
:1031D000A895809360000FBE20936000FFCF42E36C
:1031E00061EC81E0DDC0809150018F77813209F080
:1031F00060C080915101893009F05BC08091E80086
:10320000877F8093E8008091E80082FFFCCF3091B7
:10321000F1002091F100832F922F8F3F2FEF920723
:1032200019F4109201013FC023E0FC0120935700E4
:10323000E89507B600FCFDCF20E030E061E070913A
:10324000F3004091F20050E0572B452BD9F0E0916C
:10325000F1007091F1004E2F572FF901EE0FFF1F73
:10326000E80FF91F0A0160935700E89511242F5FBA
:103270003F4F2034310519F725E0FC01209357001A
:10328000E8950AC04091E8004B774093E8004091F0
:10329000E80042FFFCCFDBCF07B600FCFDCF81E1A9
:1032A00080935700E8958091E8008B778093E80041
:1032B0008BC00895913049F0923061F0913279F4E9
:1032C00089E090E024E131E00EC082E190E024E268
:1032D00031E009C082E290E022E031E004C085E103
:1032E00090E026E331E0FA013183208308952091B4
:1032F0005601309157012617370748F061157105BF
:1033000039F42091E8002E772093E80001C0B9013C
:10331000FC0120E061157105A1F18EB38823E1F174
:103320008530E1F18091E80083FD34C08091E800B0
:1033300082FF06C08091E80082FF26C080E00895E9
:103340008091E80080FFE6CF2091F3008091F200A9
:1033500090E0922B6115710551F08830910538F499
:1033600021912093F100615071090196F3CF21E082
:10337000089709F020E08091E8008E778093E800BC
:10338000C9CF2111CACFD6CF8EB3882329F085307B
:1033900089F604C081E0089582E0089583E00895ED
:1033A0008F708093E900EBEEF0E080818160808394
:1033B000EDEEF0E010826093EC0040838091EE002F
:1033C000881F8827881F08958091500187FD05C0B8
:1033D0008091E80080FF0DC010C08091E80082FD60
:1033E00004C08EB38111F9CF08958091E8008B77E6
:1033F00007C08EB38111ECCF08958091E8008E77DD
:103400008093E80008950F931F93CF93DF9346D0E6
:103410004DD0C8EDD0E088818F778883888180681F
:10342000888388818F7D888319BC1EBA10924E01D3
:1034300000EE10E0F80180818B7F808388818160BD
:10344000888342E060E080E0ABDFE1EEF0E0808185
:103450008E7F8083E2EEF0E08081816080838081D6
:1034600088608083F80180818E7F8083888180617D
:103470008883DF91CF911F910F910895E8EDF0E0DF
:1034800080818F7E8083E7EDF0E0808181608083A2
:1034900084E082BF81E080934F01B5CFE8EDF0E09A
:1034A00080818E7F80831092E20008951092DA006E
:1034B0001092E10008951F920F920FB60F921124FF
:1034C0002F933F934F935F936F937F938F939F932C
:1034D000AF93BF93EF93FF938091DA0080FF1BC0FF
:1034E0008091D80080FF17C08091DA008E7F809392
:1034F000DA008091D90080FF0BC080E189BD82E1B4
:1035000089BD09B400FEFDCF81E08EBB7BD103C035
:1035100019BC1EBA77D18091E10080FF17C080915D
:10352000E20080FF13C08091E2008E7F8093E20072
:103530008091E20080618093E2008091D8008062F7
:103540008093D80019BC85E08EBB5CD18091E100EE
:1035500084FF2CC08091E20084FF28C080E189BDF7
:1035600082E189BD09B400FEFDCF8091D8008F7D36
:103570008093D8008091E1008F7E8093E10080915C
:10358000E2008F7E8093E2008091E2008160809370
:10359000E20080914E01811104C08091E30087FF19
:1035A00002C084E001C081E08EBB2CD18091E1009B
:1035B00083FF21C08091E20083FF1DC08091E10064
:1035C000877F8093E10082E08EBB10924E01809154
:1035D000E1008E7F8093E1008091E2008E7F8093F6
:1035E000E2008091E20080618093E20042E060E0CE
:1035F00080E0D6DE07D1FF91EF91BF91AF919F910F
:103600008F917F916F915F914F913F912F910F908B
:103610000FBE0F901F9018951F93CF93DF9300D08C
:10362000CDB7DEB7E0E5F1E08091F100819381E074
:10363000E835F807C9F7D7DD8091E80083FFCEC0F1
:103640002091500130915101832F90E08A309105F3
:1036500008F0C4C0FC01EA5AF74EF0C0203881F0EF
:10366000223809F0BBC0809154018F708093E9002B
:103670009091EB0095FB992790F91092E90001C019
:1036800090E08091E800877F8093E8009093F100BC
:103690001092F10081C0822F8D7F09F09FC02230EF
:1036A00009F09CC080915201811124C020915401E5
:1036B0002F7009F493C02093E9008091EB0080FF04
:1036C00019C08091EB00333011F4806211C0806129
:1036D0008093EB0081E090E0022E01C0880F0A94F5
:1036E000EAF78093EA001092EA008091EB0088608C
:1036F0008093EB001092E9008091E800877F4FC033
:1037000021116CC0109152011F778091E3008078E5
:10371000812B8093E3008091E800877F8093E8000D
:1037200053DE8091E80080FFFCCF8091E300806849
:103730008093E300112311F083E001C082E08EBB8F
:103740004DC02058223008F049C0AE014F5F5F4F96
:10375000609154018091520190915301ABDD00972B
:1037600009F43CC02091E800277F2093E800BC01C9
:1037700089819A81BCDD8091E8008B778093E80095
:103780002DC0203859F58091E800877F8093E800AC
:1037900080914E018093F1008091E8008E778093B4
:1037A000E80012DE1BC0211119C090915201923025
:1037B000A8F48091E800877F8093E80090934E0101
:1037C00003DE80914E01811104C08091E30087FFE8
:1037D00002C084E001C081E08EBB01DD8091E80081
:1037E00083FF0AC08091E800877F8093E800809182
:1037F000EB0080628093EB000F900F90DF91CF91F0
:103800001F9108950895CF938EB38823A9F08091D6
:10381000E9008F709091EC0090FF02C090E801C029
:1038200090E0C92FC82B1092E9008091E80083FD39
:10383000F3DECF70C093E900CF910895EE0FFF1F24
:0C3840000590F491E02D0994F894FFCF5E
:10384C00010109022200010100803209040000017B
:10385C000300000009211101000122150007058158
:10386C00034000051201100100000008EB03672063
:10387C0001000000000106DCFF09FBA10109021593
:0C388C000025FF75089682009102C00024
:0400000300003000C9
:00000001FF
