:1070000055C000008CC000008AC0000088C000008D
:1070100086C0000084C0000082C0000080C0000064
:107020007EC000007CC000004CC2000078C00000A0
:1070300076C0000074C0000072C0000070C0000084
:107040006EC000006CC000006AC0000068C0000094
:1070500066C0000064C0000062C0000060C00000A4
:107060005EC000005CC000005AC0000058C00000B4
:1070700056C0000054C0000052C0000050C00000C4
:107080004EC000004CC000004AC0000048C00000D4
:1070900046C0000044C0000042C0000040C00000E4
:1070A0003EC000003CC000003AC0000011241FBEDA
:1070B000CFEFDAE0DEBFCDBF04B600FE0AC084B772
:1070C0008E7F84BF1092590110925801E0E0F0E0E9
:1070D000099504B603FE0EC08091580190915901A4
:1070E00082549C4D39F41092590110925801E0E0FD
:1070F000F0E0099511E0A0E0B1E0ECE6F8E702C0AD
:1071000005900D92AC34B107D9F711E0ACE4B1E0D1
:1071100001C01D92A835B107E1F791D0A5C370CF8A
:1071200020914C012F5F20934C01222341F4809148
:107130004D0190910001890F80934D01769A8091C5
:107140004D01281709F476988F3F19F480930001B8
:107150000895882339F480910001813019F081E08D
:107160008093000108951F93809150018F778132A1
:1071700009F05FC080915101893009F05AC08091B7
:10718000E800877F8093E8008091E80082FFFCCFD1
:107190008091F1009091F100AC018FEF4F3F5807C3
:1071A00019F4109201013FC083E0FA018093570067
:1071B000E89507B600FCFDCFA0E0B0E011E020911B
:1071C000F3008091F200322F20E090E0822B932B8D
:1071D000892B49F48091E8008B778093E8008091B7
:1071E000E80082FFFCCF8091F100682F8091F100D0
:1071F000782FFD01EE0FFF1FE40FF51F0B01109319
:107200005700E89511241196A034B105C1F685E028
:10721000FA0180935700E89507B600FCFDCF81E1A5
:1072200080935700E8958091E8008B778093E80081
:10723000CDD01F91089581E061EC42E3B3C084B7E3
:10724000877F84BF88E10FB6F89480936000109226
:1072500060000FBE81E085BF82E085BF6E9A769A9E
:1072600013D1789402C0ECD25BDF809101018823B6
:10727000D1F78091E00081608093E00082E49CED92
:1072800090935901809358012CE088E190E00FB66B
:10729000F894A895809360000FBE20936000FFCF04
:1072A000FA01913029F487E191E022E130E012C047
:1072B000923029F489E291E022E230E00BC0913271
:1072C00029F082E091E025E130E004C08BE391E019
:1072D00029E030E091838083C90108959C014091A9
:1072E0005601509157014617570718F4F90190E0DD
:1072F00044C06115710511F0AB01F8CF8091E80031
:107300008E778093E80040E050E0F0CF8EB3882382
:1073100009F444C0853009F443C08091E80083FF3C
:1073200002C081E008958091E80082FD31C0809123
:10733000E80080FF22C08091F3009091F200782F46
:1073400060E0292F30E0262B372B07C081918093F6
:10735000F100415050402F5F3F4F4115510519F04A
:107360002830310598F390E02830310509F491E098
:107370008091E8008E778093E8004115510531F641
:10738000992321F605C08EB3882341F0853041F062
:107390008091E80082FFF7CF80E0089582E00895B1
:1073A00083E008958F708093E9008091EB00816005
:1073B0008093EB001092ED006093EC004093ED00A1
:1073C0008091EE00881F8827881F089580915001C2
:1073D00088238CF403C08EB38823B1F08091E80039
:1073E00082FFF9CF8091E8008B778093E8000895C1
:1073F0008EB3882349F08091E80080FFF9CF809117
:10740000E8008E778093E8000895EF92FF920F9343
:107410001F934AD051D008ED10E0F80180818F779A
:10742000808380818068808380818F7D808319BC88
:107430001EBA10924E0180EEE82EF12CF7018081E9
:107440008B7F8083F80180818160808380E060E0B1
:1074500042E0A8DFE1EEF0E080818E7F8083E2EE03
:10746000F0E0808181608083808188608083F70183
:1074700080818E7F8083F8018081806180831F916D
:107480000F91FF90EF900895E8EDF0E080818F7EFE
:107490008083E7EDF0E080818160808384E082BFBB
:1074A00081E080934F01B1CFE8EDF0E080818E7FE5
:1074B00080831092E20008951092DA001092E100A9
:1074C00008951F920F920FB60F9211242F933F939E
:1074D0004F935F936F937F938F939F93AF93BF93DC
:1074E000EF93FF938091DA0080FF1BC08091D8005A
:1074F00080FF17C08091DA008E7F8093DA00809140
:10750000D90080FF0BC080E189BD82E189BD09B44B
:1075100000FEFDCF81E08EBB92D103C019BC1EBA24
:107520008ED18091E10080FF17C08091E20080FF42
:1075300013C08091E2008E7F8093E2008091E20090
:1075400080618093E2008091D80080628093D800AF
:1075500019BC85E08EBB73D18091E10084FF2CC003
:107560008091E20084FF28C080E189BD82E189BD6D
:1075700009B400FEFDCF8091D8008F7D8093D800A4
:107580008091E1008F7E8093E1008091E2008F7E08
:107590008093E2008091E20081608093E20080911C
:1075A0004E01882331F48091E30087FD02C081E021
:1075B00001C084E08EBB43D18091E10083FF21C0F4
:1075C0008091E20083FF1DC08091E100877F80935E
:1075D000E10082E08EBB10924E018091E1008E7F2F
:1075E0008093E1008091E2008E7F8093E2008091A1
:1075F000E20080618093E20080E060E042E0D2DE61
:107600001ED1FF91EF91BF91AF919F918F917F918B
:107610006F915F914F913F912F910F900FBE0F90FF
:107620001F9018951F93DF93CF9300D0CDB7DEB78F
:10763000E0E5F1E08091F100819381E0E835F80721
:10764000C9F791DD8091E80083FFE5C0809150018A
:1076500090915101953009F46FC0963040F491300B
:1076600091F1913070F0933009F0D5C02CC0983072
:1076700009F4A4C0993009F4B3C0963009F0CBC026
:107680007DC0803811F490E014C0823809F0C3C086
:10769000809154018F708093E9008091EB0090E01D
:1076A00025E0969587952A95E1F7982F917010928D
:1076B000E9008091E800877F8093E8009093F100D3
:1076C0001092F10086C0882319F0823009F0A3C01F
:1076D0008F71823009F09FC080915201882331F56B
:1076E000209154012F7009F496C02093E9008091F5
:1076F000EB0080FF1BC0933021F48091EB0080628F
:1077000013C08091EB0080618093EB0081E090E0FA
:1077100002C0880F991F2A95E2F78093EA00109221
:10772000EA008091EB0088608093EB001092E90002
:107730008091E800877F50C0882309F06CC01091C9
:1077400052011F778091E3008078812B8093E300C2
:107750008091E800877F8093E80038DE8091E80020
:1077600080FFFCCF8091E30080688093E3001123C9
:1077700011F482E001C083E08EBB4DC0805882309E
:1077800008F049C0809152019091530160915401D9
:10779000AE014F5F5F4F84DDBC01009709F43BC031
:1077A0008091E800877F8093E80089819A8196DD47
:1077B0008091E8008B778093E8002DC0803859F5E0
:1077C0008091E800877F8093E80080914E0180934C
:1077D000F1008091E8008E778093E800F7DD1BC010
:1077E0008823C9F4909152019230A8F48091E80066
:1077F000877F8093E80090934E01E8DD80914E01F1
:10780000882331F48091E30087FD02C081E001C04C
:1078100084E08EBB10DD8091E80083FF0AC0809178
:10782000E800877F8093E8008091EB00806280937E
:10783000EB000F900F90CF91DF911F910895089565
:107840001F938EB3882371F01091E9008091EC00B2
:107850001092E9008091E80083FF01C0E3DE1F7011
:0C7860001093E9001F910895F894FFCFE9
:10786C00010106DCFF09FBA1010902150025FF75CA
:10787C00089682009102C01201100100000008EB72
:10788C000367200100000000010902220001010031
:10789C0080320904000001030000000921110100DD
:0C78AC00012215000705810340000500C3
:040000030000700089
:00000001FF
